:020000040800F2
:100000001808002041020008EB290008CF2400084E
:10001000E92900084D080008652F000800000000CD
:10002000000000000000000000000000EF290008B0
:10003000BD09000800000000ED290008F1290008B2
:100040005B0200085B0200085B0200085B0200081C
:100050005B0200085B020008BF0900085B020008A1
:100060005B0200085B0200085B0200085B020008FC
:100070005B0200085B0200085B0200085B020008EC
:100080005B0200085B0200085B0200080000000041
:100090000000000000000000000000005B020008FB
:1000A0005B0200085B0200085B0200085B020008BC
:1000B000812A00085B0200085B0200085B0200085E
:1000C0005B0200085B0200085B0200085B0200089C
:1000D0005B020008592F00085B02000800000000C6
:1000E0005B0200085B0200085B02000800000000E1
:1000F0000000000000000000000000005B0200089B
:10010000000000005B0200085B0200085B020008C0
:1001100000000000000000000000000000000000DF
:100120005B0200085B0200085B0200085B0200083B
:100130005B0200080000000000000000000000005A
:100140000000000000000000000000005B0200084A
:100150005B0200085B0200085B0200085B0200080B
:100160005B0200085B0200080000000000000000C5
:10017000000000000000000000000000000000007F
:10018000000000005B02000800000000000000000A
:100190005B0200085B02000800F002F800F041F882
:1001A0000AA090E8000C82448344AAF10107DA45D2
:1001B00001D100F036F8AFF2090EBAE80F0013F0E3
:1001C000010F18BFFB1A43F0010318473430000039
:1001D00054300000103A24BF78C878C1FAD85207CA
:1001E00024BF30C830C144BF04680C6070470000B1
:1001F0000023002400250026103A28BF78C1FBD830
:10020000520728BF30C148BF0B607047642900F017
:10021000EB80002070471FB502F0E0FF1FBD10B556
:1002200010BD00F044FA1146FFF7F5FF02F0D6FECC
:1002300000F062FA03B4FFF7F2FF03BC00F06AFAC1
:100240000948804709480047FEE7FEE7FEE7FEE76A
:10025000FEE7FEE7FEE7FEE7FEE7FEE704480549A6
:10026000054A064B70470000712A000899010008F2
:10027000180200201808002018040020180400208C
:1002800053EA020C00F069802DE9F04B4FF00006B4
:10029000002B1FBFB3FA83F503FA05F424FA05F621
:1002A0005E4012BF1643B2FA82F502FA05F4C5F1B8
:1002B00020051EBF22FA05FC44EA0C04203556EA4C
:1002C000044C4FEA144418BF641C4FF000084FF070
:1002D0000009904271EB030C39D3002919BFB1FA20
:1002E00081F701FA07F6B0FA80F700FA07F6C7F1CE
:1002F00020071EBF20FA07FC46EA0C062037B6FB93
:10030000F4FCA7EB0507103F07F01F0BCBF120060D
:100310000CFA0BFB2CFA06F644BFB3460026202F3E
:10032000A4BF5E464FF0000B5BEA060C08BF4FF01F
:10033000010B19EB0B09ABFB027C48EB0608C01B59
:1003400006FB02CC0BFB03CC71EB0C01C1E70B46A7
:10035000024641464846BDE8F08B13B54FF0000019
:100360004FF00001AFF30080BDE81C407047000073
:100370000FB41CB5074B06AA7B446946009005984C
:1003800000F07DF90020694600F08CF91CBC5DF896
:1003900014FB00002903000070B50446856900685D
:1003A000C10601D5302600E02026C00707D070BD69
:1003B000D4E9012130469047206A401C20626D1E1E
:1003C000F6D570BD70B5044685690078C00707D1C1
:1003D00070BDD4E9012120209047206A401C206292
:1003E0006D1EF6D570BD00002DE9F04106460024D3
:1003F00010687529314616A510D0AFF3008000288B
:1004000002DA404213A507E031688A0701D512A538
:1004100002E0490704D511A5012401E0AFF30080F3
:1004200000210A2206F1240709E0B0FBF2FCB0FB30
:10043000F2F302FB1C00303078541846491C0028A7
:10044000F3D123462A463046BDE8F04100F0B9B862
:10045000000000002D0000002B0000002000000024
:100460002DE9F0474FF0000A89460446C0F820A065
:100470002046E1688847002876D0252806D0D4E9B0
:1004800001219047206A401C2062F1E7E168204684
:1004900000258847C4F81CA006460027C4F818A009
:1004A0002A2E09D0304602F06EFD38B304EB8708DF
:1004B000303EC8F8186019E059F8041B204604EBD8
:1004C00087029161E1688847012F064618D1E069EB
:1004D000002820DA25F020051DE0D8F8180000EBF0
:1004E000800006EB40003038C8F818002046E1686C
:1004F0008847064602F047FD0028EED1012F0AD0BA
:100500002E2E08D12046E16888477F1C0646022F20
:1005100045F02005C4DBA069002803DA404245F01D
:100520000105A061E80701D025F01005B6B1A6F1DC
:100530004100192802D8203645F400654A46314664
:10054000204625604D46FFF761FE58B1012806D0D0
:10055000ED1D25F0070000F1080989E704E005F129
:10056000040985E730468AE7206ABDE8F0874FF046
:10057000000200B5134694469646203922BFA0E8F3
:100580000C50A0E80C50B1F12001BFF4F7AF0907FF
:1005900028BFA0E80C5048BF0CC05DF804EB8900F0
:1005A00028BF40F8042B08BF704748BF20F8022B33
:1005B00011F0804F18BF00F8012B7047704770474B
:1005C00070472DE9F0470D4699469246044600F1E2
:1005D00024080168880604D5E06921F01001216033
:1005E00000E00120A84201DD471B00E00027A169CF
:1005F0007A1902EB0900081AA0612078C00602D41B
:100600002046FFF7C9FE002608E0D4E901211AF8C8
:1006100006009047206A401C761C20624E45F4DBA1
:100620002078C0060AD52046FFF7B6FE06E0D4E9DA
:10063000012130209047206A401C2062381EA7F11B
:100640000107F4DC07E0D4E9012118F80500904720
:10065000206A401C2062281EA5F10105F3DC20461B
:10066000FFF7B0FE2078000602D50220BDE8F08733
:100670000120FBE701694A1C02610878704700B558
:100680008FB0CDE901310021059105497944CDE9CB
:10069000031011466846FFF7E3FE0FB000BD0000EF
:1006A000E5FFFFFF0A6802F8010B0A607047754614
:1006B00000F02CF8AE4605006946534620F00700CE
:1006C000854618B020B5FFF7C9FDBDE820404FF0C2
:1006D00000064FF000074FF000084FF0000B21F02C
:1006E0000701AC46ACE8C009ACE8C009ACE8C009F9
:1006F000ACE8C0098D46704710B50446AFF30080E2
:100700002046BDE81040FFF795BD00000048704747
:10071000B401002001491820ABBEFEE7260002000C
:1007200070470000464910B54A6822F440324A60DA
:100730004A6843681A434A6001684A6822F4807232
:100740004A6001684A68036942EA03224A60016814
:100750004A6822F040724A6001684A6883681A4316
:100760004A6001688A6822F400628A6001688A68C7
:10077000C3681A438A60816A6FF07062D14201686F
:100780008A6822F070628A6001688A680CD0836A85
:100790001A438A6001688A6822F040528A600168C0
:1007A0008A68C36A1A4301E022F040528A600168F5
:1007B0008A6822F002028A6001688A68037E42EA3F
:1007C00043028A6090F82010002901684A680FD01F
:1007D00042F400624A6001684A6822F460424A605A
:1007E00001684A68174C436A04EB43331A4301E03B
:1007F00022F400624A600168CA6A22F47002CA6286
:100800000168CA6A838B104C04EB03531A43CA6213
:1008100001688A6822F400728A6001688A6890F828
:10082000303042EA43228A6001688A6822F480629A
:100830008A6001688A68406942EA8020886010BD49
:100840000023014000E0FFFF0000F0FFFEE710B5CD
:1008500004460298216022716371A0712820A07261
:100860000620E0710C202072142060720820E072D3
:10087000322000F0EDFA00223321204600F069F822
:1008800000223321204600F064F8052000F0E0FA51
:1008900000223221204600F05CF8052000F0D8FA52
:1008A00000222021204600F054F8052000F0D0FA64
:1008B000E1790022204600F04CF8217A00222046FF
:1008C00000F047F8617A0022204600F042F8A17A51
:1008D0000022204600F03DF800220121204600F0D1
:1008E00038F820460022BDE81040022100F031B85F
:1008F00030B4447900238C4201D8641EE1B284797B
:10090000944201D8641EE2B232B1012A06D0022A12
:1009100006D0032A06D007E00B4605E0403102E08E
:10092000143100E05431CBB230BC43F080010022DE
:1009300000F00FB8012200F00CB870B50C46054667
:1009400003E02846641CFFF7F5FF21780029F8D161
:1009500070BD7CB506460807040EF07A01F0F0057C
:1009600018B145F0080544F00804012A01D02AB165
:1009700008E045F0010544F0010403E025F001051D
:1009800024F0010445F004008DF80400012000F07B
:100990005FFA8DF8055044F004008DF80600012040
:1009A00000F056FA4FF47A708DF8074000903179D4
:1009B000042301AA306800F041FC7CBD704701208F
:1009C00000F06CBA78B50024009490F83C20012A1D
:1009D00019D0012280F83C200A6807230568092AFB
:1009E00013D9EE680A3A02EB420293409E43EE604E
:1009F0000B788A680A3B03EB43039A400368DD687F
:100A00002A43DA6010E0022078BD2E6902EB420230
:100A100093409E432E610B788A6803EB43039A4010
:100A200003681D692A431A614A681F23072A13D2E3
:100A300005686E6B521E02EB820293409E436E630A
:100A40000A8893B20A79521E02EB8202934002682E
:100A5000556B2B43536327E005680D2A12D22E6B8A
:100A6000D21F02EB820293409E432E630B790A88C9
:100A7000DB1F92B203EB83039A4003681D6B2A438A
:100A80001A6311E0EE6A0D3A02EB820293409E4334
:100A9000EE620B790A880D3B92B203EB83039A4016
:100AA0000368DD6A2A43DA621B4B0568194A9D42D6
:100AB0000AD10D68122D07D1556825F4000555603F
:100AC000556845F48005556005689D421DD1134D5C
:100AD0000B68AB4201D0112B17D1536823F480036C
:100AE0005360536843F4000353600968A9420CD172
:100AF0000B490C4A0968B1FBF2F101EB8101490095
:100B000000E0491E00910029FBD180F83C40002004
:100B100078BD0000002301400020014012000010B9
:100B20001C00002040420F000068C06C704770B588
:100B300004004FF0000503D0206C002610B107E040
:100B4000012070BD204600F01DF8666484F83C600A
:100B5000206CC00610D4206C20F4885040F00200B5
:100B600020642046FFF7DEFD6664206C20F0020062
:100B700040F00100206400E0012584F83C60284634
:100B800070BD000010B586B0044614216846FFF71A
:100B9000EEFC1149206888421CD1104800210268EF
:100BA00042F480720260006800F4807005900B4887
:100BB0001438026842F001020260006800F001008F
:100BC0000590042000900320CDE901016946044806
:100BD00000F070F906B010BD00200140443802401A
:100BE000000002402DE9F041044600680D4681688E
:100BF0004FF0000749050BD58068C00508D5206C6B
:100C000040F02000206484F83C700120BDE8F081B1
:100C100000F04AFA064613E0681C11D025B100F036
:100C200043FA801BA8420BD920680068800707D4CC
:100C3000206C40F00400206484F83C700320E5E759
:100C4000206800688007E7D521686FF0120008600F
:100C5000206C40F4007020642068816811F0405FCF
:100C600013D1217E89B9C16A11F4700F02D0806856
:100C700040050AD4206C20F480702064206CC004ED
:100C800003D4206C40F0010020640020BEE7000087
:100C900018B50021009190F83C20012A07D00122CC
:100CA00080F83C2002689368DB0702D011E0022044
:100CB00018BD936843F001039360244A244B1268E3
:100CC000B2FBF3F202EB420200E0521E0092002A55
:100CD000FBD102689368DB072ED0036C40F20164FD
:100CE000A34343F48073036453685B0505D5036C29
:100CF00023F4005343F480530364036CDB0404D5F2
:100D0000436C23F00603436400E0416480F83C1028
:100D100010496FF02203136049680068C90602D0C9
:100D20000D49884210D1816811F0405F0CD1816873
:100D300041F08041816007E0016C41F010010164E5
:100D4000416C41F001014164002018BD1C000020ED
:100D500040420F00002301400020014090F83C1069
:100D600001290CD0012180F83C1001688A6822F02A
:100D700001028A6001688968C90702D007E0022081
:100D80007047016C21F4885141F001010164002198
:100D900080F83C10084670472DE9F0410446876D05
:100DA00000F082F9064694F835000025022806D0A6
:100DB0008020606584F834500120BDE8F08120680F
:100DC000016821F0160101602068416921F080016D
:100DD0004161206C08B9A06C20B12068016821F045
:100DE000080101602068016821F0010101600CE048
:100DF00000F05AF9801B052807D9202060650320E0
:100E000084F8350084F83450D7E720680068C007BC
:100E1000EED194F85C103F208840B860012084F83F
:100E2000350084F834500020C7E790F835100229C7
:100E300003D08021416501207047052180F83510DD
:100E40000068016821F00101016000207047000086
:100E500070B5044600F028F90546601C02D004482D
:100E60000078044400F020F9401BA042FAD370BD82
:100E70001000002010B501280BD10221054800F018
:100E800009F905490028886801D0401C00E0401E8F
:100E9000886010BD0000024000000020044910B529
:100EA0000A68024202D00860FFF7E4FF10BD0000AC
:100EB000143C01402DE9F84FDFF8B8A100220124CD
:100EC00003254FF00F090AF1040BAAF1040E00BF2D
:100ED0000B6804FA02F63340B34273D10F7907F07E
:100EE0000307012F01D0022F16D187684FEA42086D
:100EF00005FA08FC27EA0C07D1F80CC00CFA08FC2C
:100F00004CEA070CC0F808C04768B7430E79C6F32F
:100F1000001696403E4346600E79F643B6070DD064
:100F2000C768560005FA06FC27EA0C07D1F808C086
:100F30000CFA06FC4CEA070CC0F80CC00E7906F05F
:100F40000306022E10D1D60800EB8608D8F82060E0
:100F500057074FEAD76C09FA0CF7BE430F6907FA37
:100F60000CF73743C8F8207006684FEA420C05FAC0
:100F70000CF7BE430F7907F0030707FA0CF7374366
:100F800007604E6816F4403F6DD03B4E376847F41B
:100F900080473760366822F0030706F480460096E3
:100FA000364E07EB060CDCF8086897073F0F09FA86
:100FB00007F826EA0806DFF8C880404503D14FF05D
:100FC00000081EE04FE0DFF8BC80404502D14FF042
:100FD000010816E0DFF8B080404502D14FF002086A
:100FE0000FE0DFF8A880404502D14FF0030808E089
:100FF000DFF89C80404502D14FF0040801E04FF03B
:10100000070808FA07F848EA0608CCF80888DAF86A
:1010100000605746D1F804C09E435FEACC2C00D54F
:101020001E433E60DBF800605F46D1F804C09E437B
:101030005FEA8C2C00D51E433E60DEF800607746E8
:10104000D1F804C09E435FEA8C3C00D51E433E604D
:10105000084F083F3E68D1F804C09E435FEACC3C8D
:1010600000D51E433E60521C102AFFF431AFBDE88C
:10107000F88F0000083C0140443802400030014035
:10108000000002400004024000080240000C024040
:10109000001002400069084000D0012070470AB1EA
:1010A000816170470904FBE70148806870470000D0
:1010B0001000002070B5040025D094F83D000025F4
:1010C00020B984F83C50204600F04EF9242084F8E2
:1010D0003D002068016821F001010160206801687D
:1010E00041F4004101602068016821F40041016081
:1010F00000F0A4FA4D4A6168914201D84C4900E0E1
:101100004C49884201D2012070BD4B492368B0FB95
:10111000F1F15E6826F03F060E435E60636893421D
:1011200006D94FF4967359434FF47A73B1FBF3F138
:101130002368491C1E6A26F03F0631431962616824
:10114000914210D84900401EB0FBF1F2521CC2F38C
:101150000B02042A01D2042022E0B0FBF1F0401C73
:10116000C0F30B001CE0A268F2B301EBC10303EB78
:101170000116431EB3FBF6F35B1C43F480431B05CF
:1011800049D092B301EBC10202EB0111401EB0FB4A
:10119000F1F0401CC0F30B0040F4804040F40040EC
:1011A0002168CA694CF6FF739A431043C861D4E9B9
:1011B000071001432068026822F0C0021143016059
:1011C000D4E9030101432068826848F2FF339A435F
:1011D00011438160D4E9050108432168CA6822F0FF
:1011E000FF021043C86001E00EE016E020680168CD
:1011F00041F0010101602564202084F83D00256351
:1012000084F83E50002070BD01EB4106431EB3FB45
:10121000F6F35B1CB3E70120C2E701EB4101401E7E
:10122000B0FBF1F0401CC0F30B00B7E7A086010053
:1012300080841E0000093D0040420F002DE9F84F58
:101240001F4690468A460446DDF82890FFF72CFF9B
:10125000054694F83D0020287FD1192301224049FA
:101260002046009501F0C6F9002876D194F83C009C
:10127000012872D0012084F83C0020680168C90769
:1012800003D1016841F0010101602068016821F487
:1012900000610160212084F83D00102084F83E00A8
:1012A00000262664C4F824806785608D20852D483B
:1012B000E0622B464A465146204601F021F990B99A
:1012C000206841698069009036E02A4649462046F8
:1012D00001F036FA50B1206C042804D1206801686E
:1012E00041F4007101600120BDE8F88F606A216857
:1012F00000780861606A401C6062618D491E6185EA
:10130000218D491E89B2218522685369DB435B0721
:101310000BD451B100781061606A401C6062608D2E
:10132000401E6085208D401E20852A464946204665
:1013300001F034F90028CED1208D0028C5D154F811
:101340003D0B016841F400710160202004F81E0982
:10135000E67766770020C7E7FFE70220C4E70000D2
:10136000020010000000FFFF10B586B004461421F3
:101370006846FFF7FCF813492068884220D11248DC
:101380000021026842F002020260006800F00200E0
:101390000590C02000901220CDE9010103200390A8
:1013A0000420049069460948FFF784FD0648103080
:1013B000016841F400110160006800F4001005901C
:1013C00006B010BD00540040303802400004024016
:1013D0000248816802781144816070471000002043
:1013E0000B4810B5016841F400710160016841F4D7
:1013F00080610160016841F480710160032000F0A8
:1014000071F8002000F006F800F024F8002010BD6C
:10141000003C024070B50D4D04464FF47A712878B7
:10142000B1FBF0F00A490968B1FBF0F000F00EFBE7
:1014300048B9102C07D200222146501E00F032F885
:1014400000206C6070BD012070BD00001000002005
:101450001C0000200B4882B0016841F4804101600B
:10146000006800F4804000900648001F016841F0C9
:1014700080510160006800F080500090052002B0AB
:1014800000F030B844380240002809DB00F01F02A9
:10149000012191404009800000F1E020C0F80011D6
:1014A00070470000F0B40E4B1B680C46C3F30223D8
:1014B000C3F10705042D00D90425191D072901D200
:1014C000002300E0DB1E012606FA05F1491E21403B
:1014D00099409E40761E16403143F0BC01F043BD5A
:1014E0000CED00E0064900F0070208684FF6FF0324
:1014F000184040EA0220034A104308607047000089
:101500000CED00E00000FA052DE9F0470E4605005D
:1015100065D0DFF81481D8F80000F7B200F00700BA
:10152000B04207D288F80070D8F8000000F0070039
:10153000B04254D128683D4C810712D5400703D5ED
:10154000206840F4E05020602878000703D5206828
:1015500040F4604020602068A96820F0F000084353
:1015600020602878C0072DD03049686808390128E4
:1015700012D0022813D0032811D009688907002946
:101580002DDA216821F0030101432160FFF78CFD72
:10159000814641F2883A0EE009688903EFE709685D
:1015A0008901ECE7FFF780FDA0EB0901514502D965
:1015B0000320BDE8F0872068696800F00C00B0EBFC
:1015C000810FEFD1D8F80010404601F00701B14279
:1015D00007D90770006800F00700B04201D0012071
:1015E000E7E72878400705D52068E96820F4E0504F
:1015F000084320602878000706D52068296920F470
:10160000604040EAC100206000F038F82168084AD4
:10161000C1F30311515CC8400649086006480068E0
:10162000FFF7F8FE0020C4E7003C02400838024003
:10163000E63100081C000020140000200448054981
:1016400000680968044AC1F38221515CC8407047B0
:101650001C00002008380240F63100080448054903
:1016600000680968044AC1F34231515CC8407047C0
:101670001C00002008380240F6310008154810B55B
:10168000006810F00C02144813D01449042A0FD03B
:10169000082A0ED10F4C241F2268236802F03F0253
:1016A0005B0207D52068C0F38810A0FB010106E0AB
:1016B000084610BD2168C1F38811A1FB0001002379
:1016C000FEF7DEFD2168C1F30141491C4900B0FB72
:1016D000F1F010BD083802400024F40040787D018C
:1016E0002DE9F84F04006ED02078DFF84C93C00746
:1016F000A9F104054AD009F104000168C1F3810190
:10170000012908D00068C0F3810002280AD1D9F865
:101710000000400206D52868800337D5606800289D
:10172000E1D033E06068B0F5803F10D0B0F5A02F75
:10173000286810D020F480302860286820F48020A9
:1017400028606068A8B1FFF7AFFC06460DE0286886
:1017500040F48030F4E740F480202860F7E700BFD1
:10176000FFF7A2FC801B642873D828688003F7D594
:101770000CE0FFF799FC064605E000BFFFF794FC7C
:10178000801B6428F0D828688003F7D42078DFF81D
:10179000AC8280074FF0000A3ED5A748001D0168C3
:1017A00011F00C0F08D00068C0F3810002280BD1A3
:1017B000D9F80000400207D42868800716D5E068F1
:1017C000012800D112E033E1E068B8B10120C8F887
:1017D0000000FFF769FC064605E000BFFFF764FC68
:1017E000801B0228C0D828688007F7D5286821699F
:1017F00020F0F80040EAC10028600DE0C8F800A021
:10180000FFF752FC064604E0FFF74EFC801B02285F
:101810001FD828688007F7D42078000722D5864F84
:1018200087486169703771B101210160FFF73CFCA5
:10183000064604E0FFF738FC801B022809D8386808
:101840008007F7D50EE0C0F800A0FFF72DFC064694
:1018500005E082E0FFF728FC801B02287DD838686D
:101860008007F7D42078400768D5DFF8CCB100278F
:101870000BF13C0BDBF80000C0000BD4DBF80010D0
:1018800041F08051CBF80010DBF80000012700F098
:10189000805000906B4E3068C00510D4306840F422
:1018A00080703060FFF700FC009005E0FFF7FCFB64
:1018B0000099401A022850D83068C005F6D55E4E0F
:1018C000A0686C3601280FD00528306810D020F0B1
:1018D00001003060306820F004003060A068B8B1CA
:1018E000FFF7E2FB00900FE0306840F00100F4E702
:1018F00040F004003060F7E7FFF7D6FB0099411A8B
:1019000041F28830814266D830688007F4D50EE015
:10191000FFF7CAFB009007E0FFF7C6FB0099411AEA
:1019200041F28830814256D830688007F4D42FB114
:10193000DBF8001021F08051CBF80010A069C8B38B
:101940003D49091D0968C1F3810102294AD00228D5
:10195000504607D0C8F8600000E03CE0FFF7A4FB69
:1019600004463BE04746C8F86000FFF79DFB06468B
:1019700005E000BFFFF798FB801B02282BD82868E2
:101980008001F7D4D4E907010843A16A2E4A490827
:1019900002EB0141626A41EA8211084394F82C107B
:1019A00040EA0161C9F8001001203866FFF77CFBAE
:1019B000044606E03EE000BFFFF776FB001B02286E
:1019C00009D828688001F7D534E000BFFFF76CFB29
:1019D000001B022802D90320BDE8F88F2868800187
:1019E000F4D427E00128F7D0D9F80000E26900F428
:1019F000800191421CD1226A00F03F01914217D12F
:101A000047F6C071626A0140B1EB821F10D1A26A31
:101A10004FF0FF3300F4403103EB5202B1EB024FC1
:101A200006D194F82C1000F07060B0EB016F01D07B
:101A30000120D1E70020CFE70438024000004742F0
:101A4000800E4742007000400000FFFF10B5401EAE
:101A5000B0F1807F01D3012010BD4FF0E024606120
:101A60000F21601701F07FFA0020A061072020619C
:101A7000002010BD7047704710B590F83C20012A37
:101A800022D0012280F83C20CA688C6822F440727F
:101A900022434C6822F4806222430C6822F40062E4
:101AA00022430C6922F4805222434C6922F40052F2
:101AB0002243C969002322F480420A4301684A6430
:101AC00080F83C30002010BD022010BD70B590F8A9
:101AD0003C20012A2CD0012480F83C40022280F8CE
:101AE0003D2003685A689D6822F070060A683243F8
:101AF0005A60104B02689A420ED0B2F1804F0BD060
:101B00000D4B9A4208D00D4B9A4205D00C4B9A428D
:101B100002D00C4B9A4204D1496825F08003194346
:101B2000916080F83D40002180F83C10084670BD6F
:101B3000022070BD00000140000400400008004089
:101B4000000C00400040014010B5040003D094F8A0
:101B50003D0010B107E0012010BD002084F83C00DA
:101B6000204600F01FF8022084F83D00211D206867
:101B700000F08CFF012084F8460084F83E0084F8D1
:101B80003F0084F8400084F8410084F8420084F863
:101B9000430084F8440084F8450084F83D000020A8
:101BA00010BD000008B500681149884209D11148EC
:101BB000016841F001010160006800F0010000903F
:101BC00008BDB0F1804FFBD10A48001F016841F009
:101BD000010101600068002200F001000090012175
:101BE0001C20FFF75FFCBDE808401C20FFF74CBC41
:101BF000000001404438024090F83D10012901D016
:101C000001207047022180F83D100168CA6842F047
:101C10000102CA6000680E4988420ED0B0F1804FC0
:101C20000BD00C49884208D00B49884205D00B499B
:101C3000884202D00A49884204D1816801F0070134
:101C4000062903D0016841F00101016000207047BE
:101C5000000001400004004000080040000C00406B
:101C60000040014070B5044690F83C000025012872
:101C700017D0012684F83C60022084F83D002068DB
:101C8000826822F0770222F47F428260086850283E
:101C900038D00DDC20284FD005DC90B3102811D1AE
:101CA0004AE0022070BD302846D040280AD13BE0EF
:101CB00060282FD070280DD0B0F5805F03D0B0F52C
:101CC000005F12D0012584F83D60002084F83C00BC
:101CD000284670BDCB68D1E90121206800F033FFB0
:101CE0002068816841F0770109E0CB68D1E90121E2
:101CF000206800F028FF2068816841F480418160FD
:101D0000E1E719E0CA684968206800F0D1FF502176
:101D1000206806E0CA684968206800F0DAFF6021A0
:101D2000206800F01AFFCEE7CA684968206800F012
:101D3000BFFF40212068F4E7226801461046F0E723
:101D400070472DE9F04104460068C66805694FF008
:101D50000007A90713D5B10711D5F91E01610120AC
:101D60002077206880698007204602D0FFF7E8FFCF
:101D700004E000F0A9F8204600F03BF92777680757
:101D800016D5700714D521686FF004000861022091
:101D900020772068806910F4407F204602D0FFF74A
:101DA000CFFF04E000F090F8204600F022F92777FA
:101DB000280715D5300713D521686FF00800086192
:101DC000042020772068C0698007204602D0FFF7F2
:101DD000B7FF04E000F078F8204600F00AF9277712
:101DE000E80616D5F00614D521686FF010000861DA
:101DF000082020772068C06910F4407F204602D078
:101E0000FFF79EFF04E000F05FF8204600F0F1F8D5
:101E10002777E80708D0F00706D021686FF00100A7
:101E20000861204600F03EF9280608D5300606D5A0
:101E300021686FF0800008612046FFF71BFE6806EE
:101E400008D5700606D521686FF04000086120466D
:101E500000F05CF9A8060AD5B00608D521686FF035
:101E6000200008612046BDE8F041FFF704BEBDE850
:101E7000F081000010B586B0044614216846FEF7D4
:101E800076FB0E492068884216D10D480021026871
:101E900042F001020260006800F0010005904FF47A
:101EA000807000900220CDE901010120CDE90310EE
:101EB00069460448FEF7FEFF06B010BD0000014071
:101EC0003038024000000240704770B5044690F878
:101ED0003C0000260D4601280FD0012084F83C006C
:101EE0006AB1042A1DD0082A2FD00C2A3FD001261F
:101EF000002084F83C00304670BD022070BD206890
:101F000000F034FE2068816941F008018161206899
:101F1000816921F004018161206881692A69114386
:101F200011E0206800F04AFE2068816941F40061F8
:101F300081612068816921F4806181612068816903
:101F40002A6941EA02218161D2E7206800F062FE3D
:101F50002068C16941F00801C1612068C16921F0B0
:101F60000401C1612068C1692A69114311E0206838
:101F700000F07CFE2068C16941F40061C161206805
:101F8000C16921F48061C1612068C1692A6941EA9F
:101F90000221C161ACE710B5040003D094F83D0004
:101FA00010B107E0012010BD002084F83C0020465D
:101FB00000F01EF8022084F83D00211D206800F08A
:101FC00065FD012084F8460084F83E0084F83F0057
:101FD00084F8400084F8410084F8420084F843000B
:101FE00084F8440084F8450084F83D00002010BDCA
:101FF0007047704710B50446022249B104290ED03B
:10200000082913D094F84100012816D0012010BDF2
:1020100094F83E000128F9D184F83E200FE094F8AE
:102020003F000128F2D184F83F2008E094F84000F6
:102030000128EBD184F8402001E084F841200122FE
:10204000206800F073FD12492068884203D1426C79
:1020500042F400424264206888420ED0B0F1804FC2
:102060000BD00C49884208D00B49884205D00B4957
:10207000884202D00A49884204D1816801F00701F0
:10208000062903D0016841F001010160002010BD64
:10209000000001400004004000080040000C004027
:1020A0000040014010B50068B0F1804F1DD10F4CC9
:1020B000A068E168DFED0E0A401A00EE100A0EA1DA
:1020C000B8EEC00A20EE200ADFED0A0A80EE201AE0
:1020D000BCEEC10A10EE100AC2B2A2700A48FEF7A6
:1020E00047F901202070A068E06010BD00000020CA
:1020F000000070420000904453706565643A2025EA
:102100003364202020000000A001002070477047A9
:1021100070470000F8B5016804460868CA684B6952
:1021200010F00F0F4FF0000559D003F0010602F434
:102130009077374365D0C10705D0D10503D5616CD1
:1021400041F001016164410705D5D90703D0616CF5
:1021500041F002016164810705D5D90703D0616CA4
:1021600041F004016164010707D502F02001314309
:1021700003D0616C41F008016164616C00293AD0C0
:10218000800604D5900602D5204600F0E2FD2068C6
:102190004069616CC0F38010090700D460B3204629
:1021A00000F0B0FD20684069400621D52068143059
:1021B00050E8001F21F0400140E80012002AF5D14C
:1021C000E06BA8B172490165E06BFEF72EFE0028B6
:1021D00011D0E06B016D01B0BDE8F0400847830607
:1021E0000FD593060DD52046BDE8F84000F0B1BDEF
:1021F0002046FFF78DFFF8BD2046FFF789FF656495
:10220000F8BD266B2023012E7ED1C6067CD5D606CE
:102210007AD508684868009048694FF00206400681
:102220004DD5E26B106840684FF480770004000CD5
:102230003AD0A18D814237D9E085D069B8422DD0FE
:1022400020680C3050E8001F21F4807140E8001233
:10225000002AF5D12068143050E8001F21F0010158
:1022600040E80012002AF5D12068143050E8001F21
:1022700021F0400140E80012002AF5D184F84230F4
:10228000256320680C3050E8001F21F0100140E861
:102290000012002AF5D1E06BFEF77EFD6663A08D8B
:1022A000E18D401A81B206E0A18D8142A8D1D069AA
:1022B000B842A5D166632046FFF729FFF8BDA08D7F
:1022C000E18D401A81B2E08D0028F7D00029F5D0C9
:1022D00020680C3050E8002F22F4907240E800276C
:1022E000002FF5D12068143050E8002F22F00102B1
:1022F00040E80027002FF5D184F84230256320689C
:102300000C3050E8002F00E006E022F0100240E818
:102310000023002BF3D1CDE705062BD5150629D5D3
:1023200094F841002128C9D1A068B0F5805F01D19F
:102330002069B0B1206A411C2162216800784860A0
:10234000E08C401E0004000CE084B7D12068C16816
:1023500021F08001C1602068C16841F04001C16086
:10236000F8BD206A0088C0F308004860206A801C1D
:102370002062E5E74006F3D55006F1D5CA6820464D
:1023800022F04002CA6084F8413000F09FF8F8BDA6
:10239000F72C000870B5040004D094F84100002523
:1023A00010B106E0012070BD84F84050204600F0D6
:1023B00023F8242084F841002068C16821F40051EA
:1023C000C160204600F026FD2068016921F490419B
:1023D00001612068416921F02A0141612068C168DA
:1023E00041F40051C1606564202084F8410084F804
:1023F00042006563002070BD10B586B0044614210C
:102400006846FEF7B4F818492068884229D1174871
:102410000021026842F010020260006800F0100023
:10242000059012481438026842F001020260006808
:1024300000F0010005904FF4C06000900220CDE94B
:102440000101032003900720049069460848FEF725
:1024500031FD002201212520FFF724F82520FFF778
:1024600013F806B010BD00000010014044380240CF
:102470000000024090F84230202B01D0022070472B
:1024800021B11AB10023036300F04ABD0120704757
:102490000B4810B5C2780B484FF40051302A02D0D7
:1024A000312A02D004E0012200E00022FEF7F7FD0D
:1024B00003490122BDE81040C91C0348FFF7DABFF9
:1024C00000000020000802404C0100207047FEE799
:1024D00001684A69D24352050FD46FF480624A61A1
:1024E000002140F8301F202242738173026942F0BC
:1024F0000402026101730120704700207047000050
:10250000F8B50446C06A1E460D461746082807D08F
:10251000012805D010F5803F02D0206B122804D18D
:102520002068016841F480710160134600224FF079
:1025300001112046009600F05DF840B12068006867
:10254000C00502D54FF4007020640320F8BD206957
:10255000B0F5804F0ED00620216800EAD51040F07B
:10256000F000086133463A460B49204600F08AF8ED
:1025700078B902E005F0FE0000E0E8B221680861E9
:10258000054933463A46891F204600F07BF800286B
:10259000DCD00120F8BD00000800010070B516462F
:1025A0000D4604461EE02046FFF792FF08B10120C9
:1025B00070BD681C16D0FEF777FD801BA84200D8BE
:1025C00085B920684069C04340070BD5002044F816
:1025D000300F20216173A073216941F02001216136
:1025E0002073E4E720684069C0434007DBD4002043
:1025F00070BD00002DE9F047984617460D46044689
:10260000C1F30746DDF820902AE000BFB8F1FF3F94
:1026100026D0FEF749FDA0EB0901414502D8B8F1EB
:10262000000F1DD12068012E16D0806925EA000018
:102630000004000C12D00020B84211D1002044F850
:10264000300F20216173A073216941F020012161C5
:1026500020730120BDE8F0874069E7E70120EBE740
:102660002068012E0AD0806925EA00000004000CD1
:1026700006D00020B842C9D00020EBE74069F3E75C
:102680000120F7E72DE9F047984616460D46044627
:102690004FF000094FF0200AC1F3074723E02068FC
:1026A0004069C043400515D42068016841F40071B9
:1026B000016021686FF480604861C4F8309084F84C
:1026C0003DA084F83E90216C41F00401216484F81F
:1026D0003C9021E0701C06D0FEF7E6FCA0EB080061
:1026E000B04203D816B1012F1FD021E02068012F7E
:1026F00015D0806925EA00000004000C18D000BF46
:1027000044F8309F84F80DA084F80E90216941F0C0
:102710002001216184F80C900120BDE8F087406918
:1027200025EA00000004000CEAD12068406901E0BD
:102730002068806925EA00000004000CAFD1ECE7B6
:1027400070B516460D4604461EE02046FFF7C0FE53
:1027500008B1012070BD681C16D0FEF7A5FC801BD7
:10276000A84200D885B920684069C04300060BD54F
:10277000002044F8300F20216173A073216941F0DB
:10278000200121612073E4E720684069C04300060E
:10279000DBD4002070BD00007FB5002414480094F5
:1027A0000194029411490394C0E900148460046107
:1027B000047680F820400F49C0E90A140125C5615C
:1027C000C46080F830404561FEF7B1F908B172B6D7
:1027D000FEE70220CDE90005694602940448FEF7B1
:1027E000F1F8002801D072B6FEE77FBD002001405D
:1027F000200000200100000FF0B587B014216846CA
:10280000FDF7B5FE29480024016841F0040101608C
:10281000016801F004010591016841F001010160C6
:10282000016801F001010591016841F002010160B8
:102830000068012200F002001D4E55030590294654
:102840003046FEF72CFC1B4F002218213846FEF7BD
:1028500026FC00950125CDE90154694630460394D4
:10286000FEF728FB4FF48810CDE900506946384642
:102870000295FEF71FFBE220CDE9000469463846C9
:102880000294FEF717FB18200090CDE90154694629
:1028900038460394FEF70EFB002201210620FEF7C6
:1028A00001FE0620FEF7F0FD07B0F0BD3038024013
:1028B000000802400000024010B596B000240F94BA
:1028C00010941194129413941C2108A81494FDF7E9
:1028D0004EFE20216846FDF74AFE28482649016041
:1028E0000F21C0E9011440F2E731C0E9031444614B
:1028F0008461FFF729F908B172B6FEE74FF4805002
:102900000F900FA91D48FFF7ADF908B172B6FEE7A9
:102910001A48FFF740FB08B172B6FEE7139413A9FB
:1029200016481494FFF7D2F808B172B6FEE760209B
:10293000CDE908040A940B940C940D94002208A984
:102940000E480E94FFF7C1FA08B172B6FEE7009484
:102950004FF40050CDE90440029401940394694679
:1029600006480794FFF788F808B172B6FEE70348F7
:10297000FFF780FA16B010BD00000140BC00002037
:1029800010B586B000241648009401940294039474
:1029900004944FF08041059401600F21C0E90114B7
:1029A0001049C0E903148461FFF7CEF808B172B68C
:1029B000FEE74FF48050009069460948FFF752F94E
:1029C00008B172B6FEE7049404A905480594FFF720
:1029D0007DF8002801D072B6FEE706B010BD0000F9
:1029E000040100203F420F00FEE7FEE770477047FA
:1029F000FEF7EEBC10B592B030216846FDF7B7FD8A
:102A000014210CA8FDF7B3FD17480024016841F01C
:102A100080510160006800F08050119013480168F7
:102A200041F4404101600068069400F44040119078
:102A30000220009001200390102004906846FEF7C9
:102A40004FFE08B172B6FEE70F20CDE90C040E94DC
:102A50000F9400210CA81094FEF756FD002801D019
:102A600072B6FEE712B010BD403802400070004060
:102A70000248016841F470010160704788ED00E090
:102A80000148FFF75EB9000004010020F0B50268BC
:102A90001F4B204C204D214E4FF0804C984207D0C8
:102AA000604505D0A04203D0A84201D0B04203D176
:102AB00022F070074A683A43984210D060450ED021
:102AC000A0420CD0A8420AD0B04208D0144CA04278
:102AD00005D0144CA04202D0134CA04203D122F4E2
:102AE0004074CA6822434C6922F0800222438C68F9
:102AF000C4620C688462984201D10969016301686B
:102B000041F004010160012141610260F0BD00005B
:102B1000000001400004004000080040000C00409C
:102B200000400140004401400048014010B501F060
:102B30001F030121046A99408C430462016A9A4090
:102B40001143016210BD10B5846842EA032224F4E7
:102B50007F440A432243826010BD826822F07002E3
:102B60000A4342F0070181607047000030B5036AF4
:102B7000026A22F0010202624268846924F073054D
:102B80000C682C4323F002058B682B430A4DA842A6
:102B90000BD123F00805CB6822F440722B434D691A
:102BA00023F0040315438A692A434260846149681B
:102BB0004163036230BD00000000014030B5026A8D
:102BC000036A23F010030362436884690D6824F4E8
:102BD000E64444EA05248D6822F0200242EA051208
:102BE0000B4DA8420ED1CD6822F0800242EA0512B8
:102BF0004D6923F4406343EA85038D6922F0400266
:102C000043EA85034360846149688163026230BDA1
:102C10000000014030B5036A026A22F48072026249
:102C20004268C46923F4007324F073050C682C43D4
:102C30008D6843EA05230C4DA8420ED1CD6823F4DC
:102C4000006343EA05234D6922F4405242EA05122B
:102C50008D6923F4806342EA05124260C4614968C9
:102C6000C163036230BD00000000014030B5046A5A
:102C7000026A22F4805202624268C3690D6823F43A
:102C8000E64343EA05238D6824F4005444EA0534FE
:102C9000064DA84204D14D6922F4804242EA8512D1
:102CA0004260C36149680164046230BD00000140B4
:102CB00010B5036A046A24F001040462846924F0F4
:102CC000F00444EA021423F00A020A438461026217
:102CD00010BD10B5036A046A24F01004046284690C
:102CE00023F0A00324F4704444EA023243EA0111C1
:102CF0008261016210BD10B5806B0021C185FFF7B4
:102D000007FA10BD01680C3151E8002F22F49072CF
:102D100041E80023002BF5D10168143151E8002F60
:102D200022F0010241E80023002BF5D1016B0129BB
:102D300009D101680C3151E8002F22F0100241E85E
:102D40000023002BF5D1202180F8421000210163DF
:102D5000704708B590F84210222901D0022008BD22
:102D600082684FF480539A4201D1016921B1816A8E
:102D70009A421BD04AB10AE00268816A5268C2F3E3
:102D800008020A80816A891C08E0026972B102683F
:102D9000526802F07F020A70816A491C8162C18D0B
:102DA000491E0904090CC18503D01BE00268526862
:102DB000F1E70168CA6822F02002CA600168CA68A7
:102DC00022F48072CA6001684A6922F001024A61F5
:102DD000202180F8421000214163026B012A03D0B8
:102DE000FFF756FB002008BD016301680C3151E874
:102DF000002F22F0100241E80023002BF5D10168DA
:102E00000A68D20602D50A6849680091818DFFF7E9
:102E10007EF9E7E770B5044600680169E26821F4CD
:102E20004051114301612169A068E2690843616969
:102E3000114308432168CA6849F20C639A4302436C
:102E4000CA6020684169A26921F44071114341615F
:102E500031492068884202D03049884202D1FEF7C9
:102E6000FDFB01E0FEF7EAFBE2690023192164257E
:102E70003226B2F5004F626828D0A0FB0101930F03
:102E80009200FDF7FDF90146B0FBF5F06FF0180276
:102E9000504301EB800006EB0010B0FBF5F000F0B2
:102EA000F002B1FBF5F002EB0012B1FBF5F06FF0B0
:102EB0001803584301EB800006EB0010B0FBF5F05F
:102EC00000F00F0021681044886070BDA0FB010174
:102ED00092185B41FDF7D4F90146B0FBF5F0020111
:102EE000B1FBF5F06FF01803584301EB800006EBDF
:102EF000C000B0FBF5F000F0F80002EB4002B1FBBF
:102F0000F5F0584301EB800006EBC000B0FBF5F094
:102F100000F00700D6E70000001001400014014057
:102F200081628285C28500214164222180F842109D
:102F3000016921B10168CA6842F48072CA600168FF
:102F40004A6942F001024A610068C16841F020010B
:102F5000C1600020704700000148FFF7DBB80000A7
:102F60004C010020FEE70907090E002804DB00F1F0
:102F7000E02080F80014704700F00F0000F1E0201E
:102F800080F8141D704730380A2801D2012070479C
:102F9000002070471FB500210090012001900620FD
:102FA000CDE9020169460C48FDF70CFD08B172B687
:102FB000FEE70948FDF76CFE4FF47A710648FDF70D
:102FC00011FE0548FDF7B0FD84B20348FDF7C6FECB
:102FD00004B0204610BD00002000002008B5FEF718
:102FE000FFF9FFF707FDFFF707FCFFF765FCFFF7A9
:102FF000C7FCFFF7D1FB4B484949002501604A490E
:10300000C0E901154FF48041C0E903514561856174
:10301000C5610562FEF74EF808B172B6FEE7414899
:103020004249E43001604FF4E131C0E901150C215F
:10303000C560C0E904518561C561FFF7ABF908B10E
:1030400072B6FEE737489C30FEF7D6FD35480021C2
:103050005430FEF7CFFF04203249009014234E2253
:1030600001F59670FDF7F3FB2E4801223049E4305C
:10307000FFF700FA2F4C012210212046FEF70FF82F
:10308000002208212046FEF70AF82646284CE41EB6
:103090000220FFF77FFFA080207898B125700022E2
:1030A00003212548FDF724FC24A12348FDF745FC16
:1030B000012200212048FDF71BFC1F491E480C314E
:1030C000FDF73BFC20213046FDF7E4FF20B16570A1
:1030D000A08800F065F8DBE7607818B1A08800F000
:1030E0005FF8F5E714482A46A57017A10C30FDF7E4
:1030F0003FF9012200211048FDF7FAFB0E490E4866
:103100000C31FDF71AFC074800221146543000F03C
:103110002DF840F6B830FDF79BFE01206070D7E730
:103120000054004068000020A0860100001001400B
:10313000030000200000024094010020504E4E2D5C
:103140004B3636415400000053706565643A2025C3
:10315000336420202000000010B5401A029CE41ABD
:103160006043511AB0FBF1F0184410BD642A00D935
:1031700064220068C36A5B1C53436422B3FBF2F20F
:1031800039B1042907D0082907D00C2900D10264DD
:1031900070474263704782637047C26370470000A4
:1031A00018B50C4C282801D800200BE040F6E67238
:1031B0006421904201D3E18005E0009100232821A1
:1031C000FFF7CAFFE080A279BDE81840002102485D
:1031D000FFF7CCBF00000020BC0000204FF0407083
:1031E000E1EE100A7047000000000000000001023C
:1031F00003040607080900000000010203040000A0
:10320000203200080000002020000000D401000847
:103210004032000820000020F8070000F0010008FC
:10322000000000000000000000000000000000009E
:103230000100000010000000000000000024F40065
:040000050800019955
:00000001FF
